:030000000208EF04
:0C08EF00787FE4F6D8FD75810902088BC3
:10088B007B6475823C7583007F647E007D3C7C00BD
:10089B001208008E088F097F647E007D3C7C0080EF
:1008AB0029ED4C602A8B808582908509A08DB0AA9A
:1008BB0083AB828C838D82AF03AE021208008E084D
:1008CB008F09AF03AE02AD82AC8312080080D28BCE
:1008DB00808582908509A08DB0E4F580F590F5A018
:0408EB00F5B080FEE6
:10080000C2D5EC30E709B2D5E4C39DFDE49CFCEE13
:1008100030E715B2D5E4C39FFFE49EFE120836C34D
:10082000E49DFDE49CFC800312083630D507C3E448
:060830009FFFE49EFE2282
:10083600BC000BBE0029EF8DF084FFADF022E4CCA6
:10084600F875F008EF2FFFEE33FEEC33FCEE9DEC6F
:10085600984005FCEE9DFE0FD5F0E9E4CEFD22EDB5
:10086600F8F5F0EE8420D21CFEADF075F008EF2FFF
:10087600FFED33FD4007985006D5F0F222C398FDF0
:050886000FD5F0EA228D
:00000001FF
