:03000000020006F5
:03005F0002000399
:0300030002006296
:200062007E647F007C3C7D007A017B0078287900E84960608E808C908AA088B08C068D0736
:2000820088048905880889098E828F83C007C006C005C004C001C000120198AA82AB83D094
:2000A20000D001D004D005D006D007880889098E828F83C007C006C005C004C003C0021226
:2000C2000162A882A983D002D003D004D005D006D007809C8E808C908AA088B07580007558
:0A00E200900075A00075B00080FECC
:06003500E478FFF6D8FD9F
:200013007900E94400601B7A009001D4780175A000E493F2A308B8000205A0D9F4DAF275BE
:02003300A0FF2C
:2000EC00E508450960467A01E50825E0F508E509334012F509E5829508E583950940030AE1
:20010C0080E6C3E50913F509E50813F508C3E5829508F5F0E58395094005F58385F082C385
:0D012C00E50913F509E50813F508DAE122ED
:20003B007800E84400600A790175A000E4F309D8FC7800E84400600C7900900001E4F0A3C3
:04005B00D8FCD9FAFA
:200139007A10E4FBFCE58225E0F582E58333F583EB33FBEC33FCEB9508F5F0EC95094006DA
:09015900FCABF0438201DADD2267
:0D0006007581091201D0E58260030200033C
:20016200C2D5E58330E70DD2D5E4C39582F582E49583F583E50930E70BE4C39508F508E4D5
:160182009509F5091200EC30D50BE4C39582F582E49583F58322F2
:20019800C2D5E58330E70DD2D5E4C39582F582E49583F583E50930E70DB2D5E4C39508F502
:1801B80008E49509F50912013930D50BE4C39582F582E49583F5832280
:0401D0007582002212
:00000001FF
